:020000040800F2
:1000000000000220B9020008BF020008C302000875
:1000100035030008390300088103000800000000D0
:10002000000000000000000000000000C9030008FC
:10003000CD03000800000000D1030008D917000814
:10004000E5030008E5030008E5030008E5030008F0
:10005000E5030008E503000845170008E50300086C
:10006000E5030008E5030008E5030008E5030008D0
:10007000E5030008E5030008E5030008E5030008C0
:10008000E5030008E5030008E5030008E5030008B0
:10009000E5030008E5030008E5030008E5030008A0
:1000A000E5030008E5030008E5030008E503000890
:1000B000E5030008E5030008E5030008E503000880
:1000C000E5030008E5030008E5030008E503000870
:1000D000E5030008E5030008E5030008E503000860
:1000E000E5030008E5030008E5030008E503000850
:1000F000E5030008E5030008E5030008E503000840
:10010000E5030008E5030008E5030008E50300082F
:10011000E5030008E5030008E5030008E50300081F
:10012000E5030008E5030008E5030008E50300080F
:10013000E5030008E5030008E5030008E5030008FF
:10014000E5030008E5030008E5030008E5030008EF
:10015000E5030008E5030008E5030008E5030008DF
:10016000E5030008E5030008E5030008E5030008CF
:10017000E5030008E5030008E503000800000000AF
:10018000E5030008E503000800B583B001F002F9BB
:10019000384B394A1360394A1360394906E052F83E
:1001A000041B43F8041B9842F9D86146354B994229
:1001B00005D20A684B6801F10C0C8868F3E72E4BF6
:1001C0001A68314B9A4200D0FEE72C4B1A682F4B2D
:1001D0009A42F9D1274B2E4A13602E4A13602E4AB9
:1001E00000E002462D4B9A4209D2104650F8083BD7
:1001F00051689942F5D9002243F8042BF9E7244BC2
:100200001B6813B9234B1B6803B1FEE701F076F9B5
:10021000694601A800F0CEFF214C224BE41AA4103D
:10022000002504E01F4B53F8253098470135AC42B8
:10023000F8DC1D4C1D4BE41AA410002504E01B4BF8
:1002400053F8253098470135AC42F8DC0099019805
:1002500001F0BEF90546164C164BE41AA41004E052
:10026000013C144B53F824309847002CF8DC284606
:1002700000F07CFFBABADECA000000208C0000202B
:10028000E8030008000400087856341232547698C7
:100290009000002034010020000400081004000831
:1002A00010040008100400081004000810040008DE
:1002B000100400081004000808B5FFF765FF00BE31
:1002C000FEE71EF0040F0CBFEFF30880EFF3098088
:1002D0007146414A10472DE9F04182B004468846F4
:1002E000124B5E6B9F6B9D6A1B6B13F0020F03D06A
:1002F0000E4BDB6A002B0CDB0D4800F097FFCDF8AE
:1003000000803B4632462946204600F0B9FF00BE39
:10031000FEE74BF6AB6101F02DF80028ECD04FF072
:100320000042024BDA6202B0BDE8F08100ED00E06D
:10033000502A000800BEFEE71EF0040F0CBFEFF3CA
:100340000880EFF309807146244A10472DE9F041F7
:1003500082B004468846084B5E6B9F6B9D6A0748D7
:1003600000F064FFCDF800803B4632462946204627
:1003700000F086FF00BEFEE700ED00E0602A000806
:100380001EF0040F0CBFEFF30880EFF309807146F5
:10039000134A10472DE9F04182B004468846084BC5
:1003A0005E6B9F6B9D6A074800F040FFCDF80080B0
:1003B0003B4632462946204600F062FF00BEFEE77B
:1003C00000ED00E06C2A000800BEFEE700BEFEE77C
:1003D00000BEFEE770470000D70200084D0300088A
:0803E0009503000800BEFEE7D2
:1003E800302B00080000002090000020302B00086F
:1003F80000000010000000109000002038010020CC
:080408000000001000000010CC
:1004400010B504460E4B18784FF47A73B3FBF0F3F3
:100450000C4A1068B0FBF3F000F0BEF868B90F2C3E
:1004600001D9012010BD002221464FF0FF3000F0DD
:1004700057F8054B1C60002010BD012010BD00BFC7
:1004800004000020140000200800002008B50B4BD9
:100490001A6842F400721A601A6842F480621A60A4
:1004A0001A6842F480721A60032000F01BF80F20D3
:1004B000FFF7C6FF01F05CF9002008BD003C0240D8
:1004C000034A1168034B1B780B441360704700BF4D
:1004D0002C01002004000020014B1868704700BF69
:1004E0002C01002010B50446C31E042B0FD80A4A65
:1004F000D36823F4E0631B041B0C240204F4E064BF
:10050000234343F0BF6343F40033D36010BD922113
:10051000024800F0FBFFEAE700ED00E0A028000839
:1005200070B505460C4616460F2A24D80F2C27D83E
:100530001A4BDB68C3F30223C3F10702042A28BF66
:100540000422191D062920D9033B012101FA02F2D8
:10055000013A14409C4001FA03F3013B33401C4331
:10056000002D14DB2401E4B205F1604505F5614579
:1005700085F8004370BDAA21094800F0C7FFD5E700
:10058000AB21074800F0C2FFD2E70023DDE705F00A
:100590000F052401E4B2034B5C5570BD00ED00E093
:1005A000A028000814ED00E010B5041E0BDB002CA1
:1005B00008DB620904F01F04012303FA04F4044B6E
:1005C00043F8224010BDBE21024800F09FFFEEE735
:1005D00000E100E0A02800080138B0F1807F0AD2D5
:1005E000064B5860F021064A82F8231000209860DC
:1005F00007221A6070470120704700BF10E000E03A
:1006000000ED00E010B50446042800D038B9042CF1
:100610000BD0094A136823F00403136010BD40F2A5
:10062000C911064800F072FFF1E7034A136843F06E
:100630000403136010BD00BF10E000E0A028000814
:100640002DE9F04383B080460F46B64B984223D045
:1006500003F5806398421FD003F5806398421BD056
:1006600003F58063984217D003F58063984213D056
:1006700003F5806398420FD003F5806398420BD056
:1006800003F58063984207D003F58063984203D056
:10069000B321A54800F03AFF3B689AB212B11B0C97
:1006A0001B041BB1B421A04800F030FF7B68012B74
:1006B00022D9112B20D0022B1ED0122B1CD09B4AEA
:1006C000934219D002F58012934215D002F58012A0
:1006D000934211D0A2F5F81293420DD002F5801288
:1006E000934209D002F58012934205D0032B03D028
:1006F000B5218D4800F00AFFBB68022B01D8002409
:1007000074E0B621884800F001FFF8E7C821864868
:1007100000F0FCFE80E03B69FBB1092B1DD0012BF2
:100720001BD0022B19D0032B17D0042B15D0052B6F
:1007300013D0062B11D0072B0FD0082B0DD00A2B6E
:100740000BD00B2B09D00C2B07D00D2B05D00F2B6A
:1007500003D0E021744800F0D9FEE108083158F8D0
:10076000213004F0070292000F20904023EA00039A
:10077000386900FA02F2134348F8213079E0072182
:1007800000E00021A9400A430233694941F82320CF
:10079000684B1A68F34302EA0301786810F4803F5B
:1007A00001D046EA0201634A1160526803EA02017D
:1007B000786810F4003F01D046EA02015D4A5160BA
:1007C000926803EA0201786810F4801F01D046EABB
:1007D0000201584A9160D2681340796811F4001FF1
:1007E00001D046EA0203534AD36001340F2C00F2D1
:1007F00095800125A5403B6805EA0306B542F4D182
:100800007B685A1E012A03D9112B01D0122B1AD151
:10081000FB68032B3FF67AAFD8F80830600003215D
:10082000814023EA0103FA6882401343C8F8083084
:10083000D8F8043023EA05057B68C3F30013A3400E
:100840001D43C8F80450D8F80C304FEA440903257A
:1008500005FA09F5ED432B40BA6802FA09F2134391
:10086000C8F80C307B68022B3FF455AF122B3FF4D5
:1008700052AFD8F800301D407B6803F0030303FA41
:1008800009F31D43C8F800507B6813F0805FACD0BB
:1008900000230193284B5A6C42F480425A645B6CEB
:1008A00003F480430193019BA308991C204A52F84A
:1008B000212004F003018D000F21A94022EA01024A
:1008C000184880453FF45DAF1C4988451AD001F5B2
:1008D0008061884518D001F58061884516D001F502
:1008E0008061884514D001F58061884512D001F5FA
:1008F0008061884510D001F5806188453FF43FAFA5
:1009000008213FE701213DE702213BE7032139E7C9
:10091000042137E7052135E7062133E703B0BDE8B9
:10092000F08300BF00000240D4280008000011102E
:1009300000380140003C0140003802400004024001
:1009400070B5064615460C4651B1012D04D94FF439
:10095000D071074800F0DAFD45B92404B46170BDD8
:1009600040F29F11024800F0D1FDEEE7B46170BD86
:10097000D428000808B5054B5B69034200D108BDC7
:10098000024B586100F0E4FEF9E700BF003C014073
:10099000002800F05D8270B582B0044603680F2B1A
:1009A0003DD8236813F0010F4CD063684BB1B3F509
:1009B000803F06D0B3F5A02F03D0ED21A24800F070
:1009C000A5FDA24B9B6803F00C03042B31D09F4B79
:1009D0009B6803F00C03082B26D06368B3F5803FB7
:1009E0005FD0B3F5A02F62D0984B1A6822F4803202
:1009F0001A601A6822F480221A606368002B60D0A3
:100A0000FFF76AFD0546914B1B6813F4003F19D1AF
:100A1000FFF762FD401B6428F5D903201DE2E821A1
:100A2000894800F073FDBCE7884B5B6813F4800FC6
:100A3000D3D0864B1B6813F4003F03D06368002BB0
:100A400000F00882236813F0020F66D0E368012BE0
:100A500004D940F21F117C4800F058FD23691F2B78
:100A60003ED87A4B9B6813F00C0F44D0774B9B68B1
:100A700003F00C03082B39D0E368002B76D0012259
:100A8000734B1A60FFF728FD0546704B1B6813F087
:100A9000020F62D1FFF720FD401B0228F5D9032089
:100AA000DBE16A4A136843F480331360A5E7674BC0
:100AB0001A6842F480221A601A6842F480321A607E
:100AC0009BE7FFF709FD0546604B1B6813F4003FE9
:100AD000B8D0FFF701FD401B6428F5D90320BCE125
:100AE0004FF49071584800F011FDBAE7574B5B681E
:100AF00013F4800FC0D1554B1B6813F0020F04D0C4
:100B0000E368012B01D00120A7E1504A136823F0CC
:100B1000F803216943EAC1031360236813F0080F47
:100B200048D06369012B04D94FF4B071464800F0F6
:100B3000EDFC636963B30122464B1A60FFF7CCFCFE
:100B40000546424B5B6F13F0020F33D1FFF7C4FC35
:100B5000401B0228F5D903207FE13C4A136823F0AB
:100B6000F803216943EAC1031360D6E70022384B3A
:100B70001A60FFF7B1FC0546344B1B6813F0020FF7
:100B8000CBD0FFF7A9FC401B0228F5D9032064E174
:100B90000022304B1A60FFF79FFC05462B4B5B6F22
:100BA00013F0020F06D0FFF797FC401B0228F5D97F
:100BB000032052E1236813F0040F00F08580A3683E
:100BC000012B06D9052B04D04FF4C6711E4800F046
:100BD0009DFC1E4B1B6C13F0805F33D100230193EF
:100BE0001A4B1A6C42F080521A641B6C03F080534B
:100BF0000193019B0125184B1B6813F4807F2DD0B6
:100C0000A368012B3ED0052B42D0104B1A6F22F067
:100C100001021A671A6F22F004021A67A368002BF8
:100C200040D0FFF759FC0646084B1B6F13F0020F2C
:100C300049D1FFF751FC801B41F288339842F3D928
:100C400003200AE10025D6E7042900080038024005
:100C500000004742800E474200700040824A1368FD
:100C600043F480731360FFF737FC06467E4B1B6826
:100C700013F4807FC4D1FFF72FFC801B0228F5D925
:100C80000320EAE0794A136F43F001031367C5E7D5
:100C9000764B1A6F42F004021A671A6F42F0010293
:100CA0001A67BBE7FFF718FC0646704B1B6F13F083
:100CB000020F08D0FFF710FC801B41F288339842E6
:100CC000F3D90320C9E00DBBA369022B24D8A36983
:100CD000002B00F0C180654A926802F00C02082ADD
:100CE00000F08E80022B1DD00022614B1A60FFF7AE
:100CF000F3FB04465D4B1B6813F0007F7ED0FFF7CB
:100D0000EBFB001B0228F5D90320A6E0574A136C21
:100D100023F080531364D7E740F2CF11554800F019
:100D2000F5FBD4E7E3693BB1B3F5800F04D04FF492
:100D3000EC71504800F0EAFB236A3F2B28D8636A25
:100D4000323BB3F5BF7F29D8A36A022B0AD0042B0C
:100D500008D0062B06D0082B04D040F2DB11454802
:100D600000F0D4FBE36A023B0D2B1DD80022404B60
:100D70001A60FFF7B1FB05463C4B1B6813F0007F80
:100D800018D0FFF7A9FB401B0228F5D9032064E027
:100D900040F2D911374800F0B9FBD0E74FF4ED71BC
:100DA000344800F0B3FBCFE74FF4EE71314800F068
:100DB000ADFBDBE7E369226A1343626A43EA82130D
:100DC000A26A5208013A43EA0243E26A43EA026332
:100DD000264A53600122264B1A60FFF77DFB04462A
:100DE000224B1B6813F0007F06D1FFF775FB001B39
:100DF0000228F5D9032030E000202EE000202CE06E
:100E0000012B2CD0194B5B6803F48001E2699142FD
:100E100001D0012021E003F03F02216A8A4201D083
:100E200001201AE0616A47F6C0721A408A4201D076
:100E3000012012E003F44032A16A8A4201D001206D
:100E40000BE003F07063E26A93420AD0012004E0F1
:100E500001207047012000E0002002B070BD012099
:100E6000FBE70020F9E700BF0070004000380240B7
:100E70006000474204290008F8B5314B9B6803F035
:100E80000C03042B59D0082B01D02E48F8BD2C4B55
:100E90005A6802F03F025B6813F4800F2AD0284B97
:100EA0005B68C3F388131E4600275C010025E41A23
:100EB00065EB0705A90141EA9461A001001B61EB04
:100EC0000501CB0043EA5073C400A01943EB0701AE
:100ED0004B0243EAD053440220461946002300F057
:100EE00081FC174B5B68C3F3014301335B00B0FB2C
:100EF000F3F0F8BD124B5B68C3F388131E4600275E
:100F00005C010025E41A65EB0705A90141EA94613B
:100F1000A001001B61EB0501CB0043EA5073C40044
:100F2000A01943EB07018B0243EA90538402204649
:100F30001946002300F056FCD3E70348F8BD00BF74
:100F4000003802400024F40000127A00002800F06B
:100F5000F78070B504460D460368013B0E2B11D88F
:100F6000072D15D8784B1B6803F00F039D4215D948
:100F7000EBB2754A1370136803F00F039D420DD056
:100F8000012070BD40F25121704800F0BFFAE7E740
:100F900040F252216D4800F0B9FAE3E7236813F0FC
:100FA000020F2ED013F0040F04D0694A936843F463
:100FB000E0539360236813F0080F04D0644A9368E9
:100FC00043F460439360A368A3B1802B12D0902BAD
:100FD00010D0A02B0ED0B02B0CD0C02B0AD0D02B11
:100FE00008D0E02B06D0F02B04D040F275215748F2
:100FF00000F08CFA564A936823F0F003A1680B4383
:101000009360236813F0010F3CD06368032B25D84D
:101010006368012B28D09A1E012A2CD94C4A1268E9
:1010200012F0020F00F08E8049498A6822F0030214
:1010300013438B60FFF750FA0646454B9B6803F05D
:101040000C036268B3EB820F1CD0FFF745FA801BDC
:1010500041F288339842F0D9032070BD4FF41F71DC
:101060003A4800F053FAD3E7394A126812F4003FC5
:10107000DAD1012070BD364A126812F0007FD3D158
:10108000012070BD304B1B6803F00F039D4209D255
:10109000EAB22D4B1A701B6803F00F039D4201D07A
:1010A000012070BD236813F0040F19D0E36883B1E9
:1010B000B3F5805F0DD0B3F5A05F0AD0B3F5C05F84
:1010C00007D0B3F5E05F04D040F2BA211F4800F02A
:1010D0001DFA1F4A936823F4E053E1680B439360C1
:1010E000236813F0080F1AD0236983B1B3F5805F2A
:1010F0000DD0B3F5A05F0AD0B3F5C05F07D0B3F54C
:10110000E05F04D040F2C121104800F0FFF9104A1E
:10111000936823F46043216943EAC1039360FFF7B6
:10112000ABFE0B4B9B68C3F303130A4AD35CD84056
:10113000094B1860094B1868FFF782F9002070BD51
:1011400001207047012070BD003C024004290008C6
:10115000003802407C2A000814000020080000200B
:10116000014B1868704700BF14000020FEE7000024
:1011700008B503460C4A12685AB10B4A106803338B
:1011800023F003030344094A934206D8064A136036
:1011900008BD054A06491160EFE700F0ABFC0C23DF
:1011A00003604FF0FF30F3E79400002000FC0120C3
:1011B0003801002001230360014B0B60704700BF22
:1011C0000C0000202DE9F04385B004460F4643563D
:1011D0000BB10E461EE0042528462146ABBE044650
:1011E000384605B0BDE8F08314F9011B04AA1A447F
:1011F00002F8101C0133AB42F6D304AA13440022B8
:1012000003F8102CE9464FF0040840464946ABBEAF
:101210008046761B002EE3D03546102E28BF1025C1
:101220000023E8E708B5FFF7CDFF08BD0FB400B510
:1012300083B004AB53F8042B01938021074800F0DE
:1012400007FD002804DC03B05DF804EB04B0704730
:1012500001460248FFF7E6FFF5E700BFA0000020C7
:1012600010B5044600F04CFC01462046FFF7DAFFBB
:1012700001210248FFF7D6FF10BD00BFCC290008AE
:10128000F8B504460D4617461E462748FFF7CEFF21
:1012900021682648FFF7CAFF61682548FFF7C6FFA7
:1012A000A1682448FFF7C2FFE1682348FFF7BEFFAB
:1012B00021692248FFF7BAFF61692148FFF7B6FFAD
:1012C000A1692048FFF7B2FFE1691F48FFF7AEFFB1
:1012D0001E48FFF7ABFF29461D48FFF7A7FF1D4C2F
:1012E000E16A1D48FFF7A2FF216B1C48FFF79EFF34
:1012F000E16B1B48FFF79AFF15F0800F0AD115F438
:10130000004F0CD11748FFF791FF06991648FFF7D9
:101310008DFFF8BD39461548FFF788FFEFE73146E6
:101320001348FFF783FFEDE734290008442900083C
:101330005429000864290008742900088429000839
:1013400094290008A4290008B4290008C429000829
:10135000D029000800ED00E0E0290008F02900088D
:10136000002A0008302A0008382A0008102A00083D
:10137000202A000883691A888A4201D00020704719
:101380000268033A012A03D80233836101207047BF
:101390000020704708B500F009F8024B024A9A6035
:1013A00008BD00BF00ED00E0000000084FF0006243
:1013B000014B9A60704700BF00ED00E0224B9B6834
:1013C00003F00C03042B14D0082B16D01BB11F4ABA
:1013D0001F4B1A6002E01D4A1D4B1A601A4B9B6896
:1013E000C3F303131B4AD15C194A1368CB40136043
:1013F0007047194A164B1A60F0E7134B5A685B683E
:1014000003F03F0312F4800F13D0134AB2FBF3F240
:101410000D4B5B68C3F3881303FB02F30A4A52685F
:10142000C2F3014201325200B3FBF2F3084A1360E7
:10143000D4E7064AB2FBF3F2034B5B68C3F38813AD
:1014400003FB02F3EAE700BF003802400024F40087
:10145000140000207C2A000800127A0030B595B0F4
:1014600000240194224B1A6C42F080521A641B6CC7
:1014700003F080530193019B02941E4B1A6842F4BF
:1014800080421A601B6803F480430293029B01238D
:1014900008934FF4803309934FF480030F9308238C
:1014A00010934FF4A87311930225129507231393F9
:1014B0000E9508A8FFF76CFA0F2303930495059483
:1014C0004FF4A05306934FF480530793052103A8CC
:1014D000FFF73CFDFFF744FE074BA3FB00308009FC
:1014E000FFF77AF80420FFF78DF815B030BD00BF84
:1014F0000038024000700040D34D621008B5FEF77E
:10150000C5FFFFF7ABFFFFF759FF08BD08B50A4657
:1015100001460248FFF78AFEFEE700BF8C2A00085A
:1015200010B586B00C4A136B43F00103136301231B
:1015300001930A4B02930024039401A90848FFF782
:101540007FF8224621460620FEF7EAFF0620FFF735
:101550002BF806B010BD00BF00380240000011108B
:101560000000024008B5012202FA00F189B20248E7
:10157000FFF7E6F908BD00BF000C024008B50121E5
:101580008140002289B20248FFF7DAF908BD00BFA6
:10159000000C024010B586B004460B4A136B43F0B2
:1015A00008031363012303FA00F20192029302225B
:1015B0000492039301A90548FFF742F82046FFF77C
:1015C000DDFF06B010BD00BF00380240000C024035
:1015D00070B55448FFF744FE534B19685348FFF762
:1015E00025FE00F0C7F8524B1868FFF7D3FF514BA8
:1015F0001868FFF7CFFF504B1868FFF7CBFF4F4B32
:101600001868FFF7C7FFFFF78BFF03E04B4B186825
:10161000FFF7A8FF4A4B1B78012BF7D0022B2BD0EA
:10162000032B57D0042BF5D1414C2068FFF79AFFCC
:101630007D2000F0BDF83F4D2868FFF793FF7D2027
:1016400000F0B6F83C4E3068FFF78CFF7D2000F0CC
:10165000AFF83068FFF792FF7D2000F0A9F8286806
:10166000FFF78CFF7D2000F0A3F82068FFF786FFCE
:101670007D2000F09DF8CDE72D4C2068FFF772FF2C
:101680004FF47A7000F094F82A4D2868FFF76AFF4B
:101690004FF47A7000F08CF8274E3068FFF762FF45
:1016A0004FF47A7000F084F83068FFF767FF4FF46A
:1016B0007A7000F07DF82868FFF760FF4FF47A70C9
:1016C00000F076F82068FFF759FF4FF47A7000F0C9
:1016D0006FF89FE7164C2068FFF744FFFA2000F0F0
:1016E00067F8144D2868FFF73DFFFA2000F060F816
:1016F000114E3068FFF736FFFA2000F059F83068D5
:10170000FFF73CFFFA2000F053F82868FFF736FF98
:10171000FA2000F04DF82068FFF730FFFA2000F0C3
:1017200047F877E7BC2A000814000020D02A0008F8
:10173000180000201C0000202000002024000020B1
:101740002001002008B50120FFF714F908BD0000B2
:10175000012800D07047054A13780133DBB21370BB
:10176000042BF7D90122014B1A70F3E72001002066
:10177000704700000A4B1B680A4AA2FB03239B091F
:10178000013BB3F1807F09D2074A5360F021074B38
:1017900083F823100023936007231360704700BF72
:1017A00014000020D34D621010E000E000ED00E0D6
:1017B000034B1860024B1B68002BFBD1704700BF26
:1017C00030010020034B1B681BB1024A1368013B28
:1017D000136070473001002008B5FEF771FEFFF777
:1017E000F1FF08BD53B94AB9002908BF00281CBF42
:1017F0004FF0FF314FF0FF3000F07AB9ADF1080C37
:101800006DE904CE00F006F8DDF804E0DDE902231E
:1018100004B070472DE9F0478C460D460446089EFB
:10182000002B51D18A4217466DD9B2FA82FEBEF121
:10183000000F0BD0CEF1200C01FA0EF520FA0CFCB3
:1018400002FA0EF74CEA050C00FA0EF44FEA174ABA
:10185000250CBCFBFAF81FFA87F90AFB18CC45EAFD
:101860000C4508FB09F3AB420AD9ED1908F1FF3228
:1018700080F02381AB4240F22081A8F102083D4470
:10188000ED1AA4B2B5FBFAF00AFB105544EA054480
:1018900000FB09F9A14509D9E41900F1FF3380F0F3
:1018A0000A81A14540F2078102383C44A4EB0904B7
:1018B00040EA08400021002E61D024FA0EF40023F3
:1018C00034607360BDE8F0878B4207D9002E54D096
:1018D000002186E821000846BDE8F087B3FA83F1CD
:1018E000002940F08E80AB4202D3824200F2FA809F
:1018F000841A65EB03050120AC46002E3FD086E834
:101900001010BDE8F08712B90127B7FBF2F7B7FA5C
:1019100087FEBEF1000F34D1EB1B3A0C1FFA87FC97
:101920000121B3FBF2F8250C02FB183345EA03450D
:101930000CFB08F3AB4207D9ED1908F1FF3002D2D6
:10194000AB4200F2D1808046ED1AA3B2B5FBF2F0B3
:1019500002FB105543EA05440CFB00FCA44507D9E3
:10196000E41900F1FF3302D2A44500F2B880184612
:10197000A4EB0C0440EA08409DE731463046BDE840
:10198000F087CEF1200405FA0EF307FA0EF720FADD
:1019900004F83A0C25FA04F448EA0308B4FBF2F11F
:1019A0004FEA184502FB11441FFA87FC45EA04453B
:1019B00001FB0CF3AB4200FA0EF409D9ED1901F169
:1019C000FF3080F08A80AB4240F2878002393D448C
:1019D000EB1A1FFA88F5B3FBF2F002FB103345EA6D
:1019E000034500FB0CF3AB4207D9ED1900F1FF38BA
:1019F0006FD2AB426DD902383D44EB1A40EA014147
:101A00008FE7C1F1200722FA07F88B4005FA01F4AD
:101A100048EA030320FA07FE4FEA134CFD404EEA62
:101A2000040EB5FBFCF94FEA1E440CFB19551FFAD6
:101A300083F844EA054509FB08F4AC4202FA01F2D6
:101A400000FA01FA08D9ED1809F1FF3043D2AC428F
:101A500041D9A9F102091D442D1B1FFA8EFEB5FBC9
:101A6000FCF00CFB10554EEA054400FB08F8A045BD
:101A700007D9E41800F1FF3529D2A04527D902384B
:101A80001C4440EA0940A4EB0804A0FB02894C4531
:101A9000C6464D4615D312D056B1BAEB0E0364EBD1
:101AA000050404FA07F7CB401F43CC40376074604D
:101AB0000021BDE8F0871846F8E69046E0E6C2450A
:101AC000EAD2B8EB020E69EB03050138E4E72846D9
:101AD000D7E7404691E78146BEE7014678E70238FE
:101AE0003C4445E7084608E7A8F102083D442BE7D7
:101AF000704700BF014B1868704700BF28000020E6
:101B000090F800F06DE9024520F007016FF0000C3D
:101B100010F0070491F820F040F049804FF00004E5
:101B20006FF00700D1E9002391F840F000F10800C0
:101B300082FA4CF2A4FA8CF283FA4CF3A2FA8CF3F8
:101B40004BBBD1E9022382FA4CF200F10800A4FA5F
:101B50008CF283FA4CF3A2FA8CF3E3B9D1E90423B3
:101B600082FA4CF200F10800A4FA8CF283FA4CF3EA
:101B7000A2FA8CF37BB9D1E9062301F1200182FAA4
:101B80004CF200F10800A4FA8CF283FA4CF3A2FAAA
:101B90008CF3002BC6D0002A04BF04301A4612BAB8
:101BA000B2FA82F2FDE8024500EBD2007047D1E9BB
:101BB000002304F00305C4F100004FEAC50514F04A
:101BC000040F91F840F00CFA05F562EA05021CBF1B
:101BD00063EA050362464FF00004A9E770B5141EDE
:101BE0009AB005462EDB1A464FF402730091049119
:101BF000ADF80C3011D0013C4FF6FF761E9B0294DD
:101C000069460594ADF80E6000F012F9421C12DB33
:101C1000009B00221A701AB070BD1E9B02944FF6F2
:101C2000FF7669460594ADF80E6000F001F9431C9B
:101C300004DB1AB070BD8B232B60E9E78B232B608C
:101C40001AB070BD8B2303604FF0FF30F1E700BF87
:101C500010B582B0054C0093246813460A4601462D
:101C60002046FFF7BBFF02B010BD00BF28000020D8
:101C70002DE9F0478E689E420C461D46174628D82F
:101C80008046888910F4906F32D04E6923680969C4
:101C900006EB4606A3EB010906EBD6766B1C761025
:101CA0004B44B342324684BF1E463246430522D5DA
:101CB0001146404600F052FD824680B34A462169F3
:101CC00000F006FCA38923F4906343F08003A38112
:101CD00016E008681E462A46394600F093FCA268C2
:101CE0002368961B2B44A66023600020BDE8F08784
:101CF00008683546EFE7404600F08EFD824650B159
:101D0000A6EB09030AEB09006661C4F810A0206085
:101D1000A3602E46DFE72169404600F0D7FC0C2384
:101D2000C8F80030A38943F04003A3814FF0FF308F
:101D3000BDE8F0872DE9F04F936883B09046002B03
:101D400070D082460C4617688D68086842E0A38907
:101D500013F4906F2ED06569216905EB4505A0EB62
:101D6000010B05EBD5750BF101006D103044A84255
:101D70002A4684BF05462A465B0538D5114650469B
:101D800000F0ECFC00283CD05A462169019000F09C
:101D90009FFBA289019B22F4906242F08002A28103
:101DA000A5EB0B0203EB0B00656123612060A260D1
:101DB0003546B3465A46494600F024FCD8F8083068
:101DC000A2682068551B58449E1BA5602060C8F877
:101DD00008603EB37E683B460837002EFAD0AE421C
:101DE000D3F80090AB46B2D23546B346E2E7504650
:101DF00000F012FD03460028D2D12169504600F0C0
:101E000065FC0C23CAF80030A389002243F040038C
:101E10004FF0FF30A381C8F80820C8F8042003B0B1
:101E2000BDE8F08F0020C8F8040003B0BDE8F08FD3
:101E30002DE9F04F14468A899DB015068946039313
:101E4000824603D50B69002B00F0EB8030238DF820
:101E50002A3023787C4E0022202109928DF8291007
:101E60000127002B00F08480252B254603D117E0A5
:101E7000252B00F0878015F8013F002BF8D1B5EB3A
:101E8000040B75D022465B4649465046FFF7F0FEEC
:101E900001306DD0099B2A785B440993002A67D0F2
:101EA00000234FF0FF3201350493079306938DF81A
:101EB00053301A93059204E0049A07FA03F313438C
:101EC000049329780522304600F0B2FA2C46831B91
:101ED00001350028F0D1049BD90644BF20228DF89B
:101EE000532021781A0744BF2B228DF853202A292A
:101EF0006BD0A1F13002092A0BD8079B14F8011FFF
:101F000003EB830302EB4303A1F13002092AF5D965
:101F100007932E2941D04D4D0322284600F088FA20
:101F200038B1049B401B402202FA00F00343013405
:101F30000493217846488DF828100622013400F0D9
:101F400077FA00284BD0434B03B303AB00934A46C8
:101F5000414B04A95046AFF300808046B8F1FF3FE3
:101F600006D0099B434409932378002B7FF47CAF70
:101F7000B9F80C305B0654BF09984FF0FF301DB024
:101F8000BDE8F08FB5EB040B8AD07BE7039B0733EA
:101F900023F0070308330393E3E761782A2904F168
:101FA000010026D0A1F130020023092A059304463E
:101FB000B1D814F8011F03EB830302EB4303A1F133
:101FC0003002092AF5D90593A5E7039A116804326E
:101FD000002903921FDB07916178013499E703AB75
:101FE00000934A461C4B04A9504600F0D1F88046A5
:101FF000B4E7039B1A680592002A03F104030393D4
:10200000B8BF4FF0FF3204F10203AEBFA178A17850
:1020100005921C467FE7494243F00203079104936F
:10202000DAE7402100F09AFBC9F80000C9F8100077
:1020300018B14023C9F8143008E70C23CAF800305F
:102040004FF0FF309BE700BFEC2A0008F42A00089D
:10205000F82A000800000000711C00082DE9F04774
:102060000C4691460A698968DDF820808A42B8BF2B
:102070000A46C9F8002094F8431006461F4611B1DD
:102080000132C9F80020236899065DD5D9F80020EF
:102090000232C9F80020236813F0060F19461DD13B
:1020A000E1688A1A002AD8BF194617DD04F1190A17
:1020B000002505E0E368D9F800209B1AAB420CDD4F
:1020C0000123524639463046C047013005F101052B
:1020D000F0D14FF0FF30BDE8F087216894F843302D
:1020E000003318BF01238A060AD5E1185A1C302094
:1020F00081F84300224494F8451082F843100233DB
:1021000004F1430239463046C0470130E1D023682C
:1021100003F00603042B29D0A36822699342C8BFA9
:102120004FF0000930DD9B1A99441A34002501E074
:102130004D4529D00123224639463046C04701305B
:1021400005F10105F4D1C4E713F0060F08D1E168E9
:10215000D9F800208A1A002AD8BF1946A6DCBDE7A4
:1021600094F84330003318BF0123C9E7D9F80010B1
:10217000E068A3682269A0EB0109934229EAE979A2
:10218000D1DCB9F1000FD0D10020BDE8F08700BF4D
:102190002DE9F0430C46097E85B06E2906461746A8
:1021A0000C98984604F1430C55D00FD8632900F0E1
:1021B0001B8100F2D68000295CD0582940F0E880CD
:1021C00084F845102268DFF860E213E0732900F01C
:1021D000FD8000F289806F2900F0E480702940F0D2
:1021E000D780226842F0200222607823DFF83CE2A8
:1021F00084F845300368150603F1040100F1FF80FF
:1022000055064BBF1B881B6801600160D00744BFA7
:1022100042F020022260002B40F09580226822F0DC
:10222000200222601021002284F843206068A06010
:102230000028C0F28D80226822F004022260002B68
:1022400067D1002840F08680654608296FD0ACEB46
:102250000503236111E023681A0600F1D38013F00F
:10226000400F0368626903F1040101601B6814BF39
:102270001A801A60002365462361CDF800803B4632
:1022800003AA21463046FFF7E9FE013021D02A4655
:10229000236939463046C04701301AD02368E068C8
:1022A00013F0020F039B19D0C21A002A16DD04F1A5
:1022B0001909002504E0E068039BC21AAA420DDD5B
:1022C00001234A4639463046C047013005F1010531
:1022D000F1D14FF0FF3005B0BDE8F0839842B8BFB0
:1022E000184605B0BDE8F08375295BD078294FD139
:1022F00022687AE76168A1602D200029C3F10003FC
:1023000084F8430021DB22F00402DFF81CE12260A4
:102310000A216546B3FBF1F201FB123013461EF8A9
:10232000002005F8012D002BF4D108298FD1236856
:10233000D9078CD5626823699A4288DC302305F876
:10234000013C013D83E710216DE7DFF8DCE00A2165
:10235000002BDED19EF8003084F8423004F14205B3
:1023600073E7642901D0692912D122680368150630
:1023700003F1040152D455064BBFB3F900301B687A
:1023800001600160002BB5DBDFF89CE00A214DE71E
:10239000012384F84210236104F14205002384F8EC
:1023A00043306AE723681A0633D413F0400F0368FA
:1023B00003F1040215BF1B881B68026002606F29CD
:1023C00014BF0A210821DFF860E02CE70368626887
:1023D000191D01601D680021284600F029F800B38E
:1023E000401B60602061D9E703681A68191D01234A
:1023F000016004F1420584F842202361CEE70160C8
:102400001B6803E703686269191D01601B681A6095
:1024100030E703681A1D02601B68D0E701601B6883
:10242000B0E76068DEE700BF002B0008142B00084F
:1024300001F0FF01102A2BDB10F0070F08D010F875
:10244000013B013A8B422DD010F0070F42B3F6D179
:10245000F0B441EA012141EA014122F007047FF092
:1024600000070023F0E80256083C85EA010586EAE9
:10247000010685FA47F5A3FA87F586FA47F6A5FA25
:1024800087F68EB9EED1F0BC01F0FF0102F0070231
:1024900032B110F8013B013A83EA010313B1F8D1DC
:1024A0000020704701387047002D06BF35460338BD
:1024B000073815F0010F07D1013015F4807F02BFF6
:1024C000013015F4C03F0130F0BC0138704700BF47
:1024D000844641EA000313F003036DD1403A41D32F
:1024E00051F8043B40F8043B51F8043B40F8043BEE
:1024F00051F8043B40F8043B51F8043B40F8043BDE
:1025000051F8043B40F8043B51F8043B40F8043BCD
:1025100051F8043B40F8043B51F8043B40F8043BBD
:1025200051F8043B40F8043B51F8043B40F8043BAD
:1025300051F8043B40F8043B51F8043B40F8043B9D
:1025400051F8043B40F8043B51F8043B40F8043B8D
:1025500051F8043B40F8043B51F8043B40F8043B7D
:10256000403ABDD2303211D351F8043B40F8043B1D
:1025700051F8043B40F8043B51F8043B40F8043B5D
:1025800051F8043B40F8043B103AEDD20C3205D32D
:1025900051F8043B40F8043B043AF9D2043208D025
:1025A000D2071CBF11F8013B00F8013B01D30B8897
:1025B00003806046704700BF082A13D38B078DD075
:1025C00010F003038AD0C3F10403D21ADB071CBF47
:1025D00011F8013B00F8013B80D331F8023B20F8B1
:1025E000023B7BE7043AD9D3013A11F8013B00F8EA
:1025F000013BF9D20B7803704B7843708B78837072
:10260000604670478842F0B50DD98B1898420AD2BF
:102610008418002A51D0224613F8014D02F8014DCA
:102620009942F9D1F0BD0F2A48D941EA00039B072E
:1026300046D100F1100401F11003154653F8106C57
:1026400044F8106C53F80C6C44F80C6C53F8086C9C
:1026500044F8086C103D53F8046C44F8046C0F2DDA
:1026600003F1100304F11004E8D8A2F1100323F0E1
:102670000F0302F00F0E1033BEF1030F1944034491
:1026800021D91E1F0D467446043C55F8047B46F8BC
:10269000047F032CF8D8AEF1040424F003040434BE
:1026A0002144234402F0030262B1013B0A4411F8C1
:1026B000014B03F8014F8A42F9D1F0BD0346F3E71D
:1026C0000346F2E7F0BD7246EEE700BF91B151F864
:1026D000043C0439002BB8BFC9181F4B1A68FAB163
:1026E0008A4230B40AD908680C18A24226D04A603F
:1026F000196030BC70478B4203D81A465368002BD0
:10270000F9D1146815198D420DD006D808680C1837
:102710009C4219D04B605160EBE70C230360E8E763
:102720004A601960704709680C4411199942146095
:10273000DFD10ACB0C4453601460DAE714685268A6
:102740004A6020440860D3E71C685B684B60204403
:1027500008605160CDE700BF2401002070B5CC1C9B
:1027600024F0030408340C2C38BF0C24002C06463B
:102770003BDBA14239D8274D296851B10A68121BA9
:1027800004D436E01A68121B1AD519464B68002B80
:10279000F8D16968002937D02146304600F064F846
:1027A000431C22D0C31C23F00305A84205D0291ADC
:1027B000304600F059F8013017D02C602B4604E069
:1027C0000B2A0DD91A6013441C6003F10B0020F092
:1027D00007001A1D821A02D05142995070BD70BD77
:1027E0008B420ED05A684A60EFE70C23336000201A
:1027F00070BD0B2A03D84A680B462A60E5E70B46F2
:10280000E0E70A460B46F8E7304600F02DF868602E
:10281000C2E700BF24010020F8B51446F9B1C2B1E7
:1028200006460D4600F032F8844201D82846F8BD2D
:1028300021463046FFF792FF074670B122462946EF
:10284000FFF746FE294630463D46FFF73FFF284644
:10285000F8BDFFF73BFF2546E8E70546E6E71146EA
:10286000BDE8F840FFF77ABF38B5074C00230546AE
:1028700008462360FEF77CFC431C00D038BD23686B
:10288000002BFBD02B6038BD9800002051F8040CC1
:102890000028A0F10400BCBF0B58C018704700BF4F
:1028A0002E2E2F73797374656D2F7372632F73746B
:1028B0006D333266342D68616C2F73746D333266FC
:1028C0003478785F68616C5F636F727465782E63CB
:1028D000000000002E2E2F73797374656D2F7372B4
:1028E000632F73746D333266342D68616C2F73748B
:1028F0006D3332663478785F68616C5F6770696FDA
:102900002E6300002E2E2F73797374656D2F7372F2
:10291000632F73746D333266342D68616C2F73745A
:102920006D3332663478785F68616C5F7263632EF2
:1029300063000000537461636B206672616D653AD9
:102940000A000000205230203D2020253038580A4F
:1029500000000000205231203D2020253038580A48
:1029600000000000205232203D2020253038580A37
:1029700000000000205233203D2020253038580A26
:102980000000000020523132203D20253038580A06
:1029900000000000204C52203D2020253038580AED
:1029A00000000000205043203D2020253038580AE8
:1029B0000000000020505352203D20253038580A96
:1029C000000000004653522F4641523A0A000000D0
:1029D0002043465352203D2020253038580A00001D
:1029E0002048465352203D2020253038580A000008
:1029F0002044465352203D2020253038580A0000FC
:102A00002041465352203D2020253038580A0000EE
:102A1000204D4D464152203D20253038580A0000B7
:102A20002042464152203D2020253038580A0000DF
:102A30004D6973630A000000204C522F4558435FD4
:102A400052455455524E3D20253038580A0000005A
:102A50005B486172644661756C745D0A0000000039
:102A60005B4275734661756C745D0A005B557361FA
:102A700067654661756C745D0A0000000000000027
:102A800000000000010203040607080957726F6E78
:102A90006720706172616D65746572732076616C18
:102AA00075653A2066696C65202573206F6E206C11
:102AB000696E652025640D0A0000000048656C6C95
:102AC0006F2041726D20576F726C6421000000000E
:102AD00053797374656D20636C6F636B3A20257551
:102AE00020487A0A0000000043000000232D302B0C
:102AF00020000000686C4C00656667454647000092
:102B00003031323334353637383941424344454623
:102B100000000000303132333435363738396162E5
:082B200063646566000000001B
:082B2800ECECFF7F010000004E
:102B30007856341201FFFFFF100000009C000020B7
:102B4000000000000024F4000F0000000C00000052
:102B50000D0000000E0000002C000020000000000E
:102B60000000000000000000000000000000000065
:102B7000000000000000000000000000E82A00083B
:102B80000000000000000000000000000000000045
:102B90000000000000000000000000000000000035
:102BA0000000000000000000000000000000000025
:102BB0000000000000000000000000003254769881
:040000050800018965
:00000001FF
