:100000000C9434000C9446000C9446000C9446006A
:100010000C9446000C9446000C9446000C94460048
:100020000C9446000C9446000C9446000C94460038
:100030000C9446000C9446000C9446000C94460028
:100040000C9446000C9446000C9446000C94460018
:100050000C9446000C9446000C9446000C94460008
:100060000C9446000C94460011241FBECFEFD8E03C
:10007000DEBFCDBF11E0A0E0B1E001C01D92AE3007
:10008000B107E1F70E94EF000C9449010C940000C5
:10009000209A26982E9A27982F9A089580E4809384
:1000A0007C0087E880937A00089590917C00987F87
:1000B00090937C0090917C008770892B80937C00CA
:1000C00080917A00806480937A0080917A0084FF26
:1000D000FCCF80917A00806180937A002091780033
:1000E00030917900C9010895E0E8F0E080818368EB
:1000F0008083E1E8F0E080818B608083219A08951D
:10010000823D910558F48DEC90E0909389008093A6
:10011000880082E38093000180E32AC021E08E3FC3
:10012000920758F48AE991E09093890080938800BF
:1001300082E38093000185E31BC022E0863C9207A6
:1001400058F48DEC92E0909389008093880082E3CC
:100150008093000189E30CC08150944098F48DECA9
:1001600093E0909389008093880083E3809300015B
:100170008093010180EB8093020183E4809303016B
:1001800080E20FC010928900109288008FE4809363
:10019000000186E4809301018093020180E2809354
:1001A0000301809304011092050180E091E008951D
:1001B0008093C4009093C500E2ECF0E080818660FB
:1001C0008083E1ECF0E08081886D80830895982F32
:1001D0008091C00085FFFCCF9093C60008950F93D7
:1001E0001F93CF93DF930E9448000E944E000E940D
:1001F000740087E690E00E94D80000E911E01F99A2
:100200003BC01E992CC088EC90E0F8013197F1F7C3
:100210000197D9F7289A80E00E94550090930B012E
:1002200080930A010E94800090930D0180930C013D
:10023000C0E0D0E0E0910C01F0910D01EC0FFD1F4A
:1002400080810E94E7002196C630D10599F788EC9D
:1002500090E0F8013197F1F70197D9F7D0CF88EC0A
:1002600090E0F8013197F1F70197D9F710928900E2
:10027000109288002898C3CF289810928900109275
:10028000880088EC90E0F8013197F1F70197D9F7F1
:06029000B6CFF894FFCF89
:00000001FF
